:101A7000013D00014400C104C106C105024100004E
:101A8000023F0000022A0000022C0000023B00007E
:101A9000013900013A000226000002280000013846
:101AA00001012500022E0000042100000001013E7A
:011AB00042F3
:03000300020006F2
:03000600D20632ED
:101D2F00E4F53DC2A1EF339290EF25E0FFD2A1057C
:071D3F003DE53DB402ED2279
:101D1600E4F53DC2A1EF339290EF25E025E0FFD236
:091D2600A1053DE53DB404EB22EA
:101CF900EF25E0FFE4F53DC2A1EF339290EF25E037
:0D1D090025E0FFD2A1053DE53DB404EB222D
:091AD300853E59AB3EAD3EAF3E2D
:101ADC00E4FEC2A1EF339290EF25E025E0FFD2A106
:101AEC000EBE04EEE4FEC2A1ED339290ED25E0258E
:101AFC00E0FDD2A10EBE04EEE4FEC2A1EB33929047
:101B0C00EB25E025E0FBD2A10EBE04EEE4FEC2A163
:101B1C00E559339290E55925E025E0F559D2A10E0F
:031B2C00BE04EB09
:011B2F002293
:09199600853E59AB3EAD3EAF3E6B
:10199F00EF25E0FFED25E0FDEB25E0FBE55925E028
:1019AF00F559E4FEC2A1EF339290EF25E025E0FF59
:1019BF00D2A10EBE04EEE4FEC2A1ED339290ED254E
:1019CF00E025E0FDD2A10EBE04EEE4FEC2A1EB3392
:1019DF009290EB25E025E0FBD2A10EBE04EEE4FED3
:1019EF00C2A1E559339290E55925E025E0F559D28A
:0519FF00A10EBE04EB87
:011A040022BF
:101BE000538E7F5389F0758A12758CFFC28DD2A9EE
:101BF000759850538EBF538EFE53890FD2AC758BA0
:101C0000D8758DFFC2ABD28ED288D2A8D28AD2AA82
:031C1000C2AF223E
:100DEC00121BE07B007A007917121BAA7F551200A8
:100DFC0016121996121AD3121AD3121996D2A0C21D
:100E0C00A0C2A37F007E64121C9AEF7F00FEC00676
:100E1C00C0070F7E64121C9AEFFDD0E02DFFD0E0CE
:100E2C003400FEEFC4F8540FC868F527EEC454F034
:100E3C0048F5267F027E64121C9AEF7F00FEC006E6
:100E4C00C0077F037E64121C9AEFFDD0E02DFFD00B
:100E5C00E03400FEEFC4F8540FC868FFEEC454F041
:100E6C0048FEEF246AF529EE34FFF528E527240423
:100E7C00F52FE43526F52E746A2527F52774FF35F2
:100E8C0026F526E4FFFE121C9AEF14F539E4F53E24
:100E9C00E53ED395395031E53E2401FFE433FE1293
:100EAC001C9A74D2253EF582E43400F583EFF0747D
:100EBC00D2253EF582E43400F583E0253CF53CE494
:100ECC00353BF53B053E80C8756EF1E4F53EAF6EE3
:100EDC00056EA807E6FF74C8253EF582E43400F5DC
:100EEC0083EFF074C8253EF582E43400F583E0FF0F
:100EFC00120016053EE53EC3940740D29000C8E0B0
:100F0C0064F4602C7559557B557D557F5512199F8E
:100F1C007559557B557D557F55121ADCE4F559FBF7
:100F2C00FDFF121ADCE4F559FBFDFF12199F80FE40
:100F3C00E4F53FF5409000D2E0F53AD2AF2006033D
:100F4C000212CFC206D204200103021054C201E5E2
:100F5C0062121970104308102F0C0FFA1510341868
:100F6C000FBF190F7F40102A4510114710395E0032
:100F7C00001051E538B402077D01AF1E1217D5E5FC
:100F8C0038640460030210510525E525D3953940DA
:100F9C0009E4F525F53FF540F53AE53A2540F540ED
:100FAC00E4353FF53F74D22525F582E43400F58312
:100FBC0002104EE538B40207E4FDAF1E1217D5E55A
:100FCC003864046003021051E525D3940040761573
:100FDC002574D22525F582E43400F583E0F53AFF3B
:100FEC00C3E5409FF540E53F9400F53F8057E53859
:100FFC00B4020E051EE51ED394054049E4F51E808F
:10100C0044B20580407B007A007917121C45E4FD40
:10101C007F8E121CCB7DA57F90121CCB8027753840
:10102C0005802275380180087538028018753803E0
:10103C00E4F53FF540800E753804E4F53FF540903B
:10104C0000D2E0F53AE4F562E53824FE70030211B3
:10105C00981470030211A714700302124B2403603E
:10106C00030212CF200510052BE52B7002052A0573
:10107C002DE52D7002052CD3E52B9527E52A952619
:10108C004005E4F52AF52BD3E52D9529E52C95287B
:10109C004005E4F52CF52DE4F541F542854759E47E
:1010AC00FBFDFF12199F854759E4FBFDFF121ADC6B
:1010BC00AF46121D16E4FF121D2FAF45121D16AFC1
:1010CC0043121D16E4FF121D2FAF46121CF9E4FF4C
:1010DC00121D2FAF45121CF9AF43121CF9E4FF127D
:1010EC001D2FD2A0C2A0C2A3121D95E542252BFF35
:1010FC00E541352AFEEF25E0FFEE33FEE42FFFEE4F
:10110C003464FE121C9A8F43E542252BFFE54135D2
:10111C002AFEEF25E0FFEE33FEEF2401FFEE3464F0
:10112C00FE121C9A8F45E542252FCFE541352ECF77
:10113C00252DCF352CFEEF25E0FFEE33FEE42FFFFF
:10114C00EE3464FE121C9A8F46E542252FCFE54102
:10115C00352ECF252DCF352CFEEF25E0FFEE33FEBF
:10116C00EF2401FFEE3464FE121C9A8F47D2A33099
:10117C0006030212CF0542E54270020541C3949664
:10118C00E541940050030210A80212CF121C131256
:10119C000026121DB71200260212CF2005080540AA
:1011AC00E5407002053FD3E540953CE53F953B405B
:1011BC0005E4F53FF540853F41854042E5402496E6
:1011CC00FFE4353FFEC3E5429FE5419E400302121A
:1011DC00CF853459AB35AD36AF3712199F8534599D
:1011EC00AB35AD36AF37121ADC853059AB31AD3279
:1011FC00AF33121ADC853059AB31AD32AF33121923
:10120C009FD2A0C2A0C2A3E542AE417803C333CEA5
:10121C0033CED8F92432FFE43EFE7B007A007930DD
:10122C00755600755708121B30121D95D2A3300647
:10123C00030212CF0542E542708205410211C885B6
:10124C003F418540427E00E540253AFFEE353FFEAA
:10125C00C3E5429FE5419E506A853459AB35AD36A6
:10126C00AF3712199F853459AB35AD36AF37121ADB
:10127C00DC853059AB31AD32AF33121ADC853059C5
:10128C00AB31AD32AF3312199FD2A0C2A0C2A3E5CD
:10129C0042AE417803C333CE33CED8F92432FFE4C7
:1012AC003EFE7B007A007930755600755708121B8C
:1012BC0030121D95D2A320060A0542E54270860520
:1012CC00418082300403020F49053DE53DD3942053
:1012DC00400CE4752401F523F522F521F53DAF24EE
:1012EC00AE23AD22AC21781812193EC007AF24AE44
:1012FC0023AD22AC21781012193EAD07C005AF24E6
:10130C00AE23AD22AC21780812193EAB07852459C7
:10131C00D005D00712199FAF24AE23AD22AC217893
:10132C001812193EC007AF24AE23AD22AC217810A1
:10133C0012193EAD07C005AF24AE23AD22AC217807
:10134C000812193EAB07852459D005D007121ADCB8
:10135C00AF24AE23AD22AC21781812193EC007AFD2
:10136C0024AE23AD22AC21781012193EAD07C00576
:10137C00AF24AE23AD22AC21780812193EAB078501
:10138C002459D005D007121ADCAF24AE23AD22AC01
:10139C0021781812193EC007AF24AE23AD22AC2120
:1013AC00781012193EAD07C005AF24AE23AD22ACA8
:1013BC0021780812193EAB07852459D005D00712A5
:1013CC00199FD2A0C2A0C2A320041D121D80D2A3BB
:1013DC00AF24AE23AD22AC2178011219518F248E8B
:0913EC00238D228C21020F4922FD
:091AB1000717001022200504159E
:0217D5008D5134
:1017D700BF0109755284755417E4F555BF020975A1
:1017E700528275543BE4F555BF0309755280755411
:1017F7003BE4F555BF040975528875540C755501BE
:10180700BF050975528675541F755501BF060975C1
:10181700528A755407755501E55204FF121DACEF46
:10182700C4540F75F00AA4FFC007E55204FF121D48
:10183700ACEF540FFED0E02EF553E551B40104058B
:101847005380021553E553D395544003855553E50B
:1018570053C395555003855453E4FD7F8E121CCB1B
:10186700E55375F00A84C454F0FFE55375F00A8414
:10187700EF25F0FDAF52121CCB7D807F8E021CCB73
:061D4600C2B6C2B4D2B621
:0F1D4C00EF7F08A2E092B5D2B4C2B4C313DFF4A4
:011D5B002265
:0F1D70007F08C313A2B592E7D2B4C2B4DFF4FF69
:011D7F002241
:101CBB00E4FD7FC6121CCB7FC8121CCB7D9B7FC45F
:0F1CCB00AE05121D46AF06121D4CD2B4C2B62292
:0A1DAC00121D46121D70D2B4C2B61B
:011DB600220A
:101C4500755180E4FD7F8E121CCB7C07121913FDA4
:101C5500AF51121CCB740129F9E43AFA055105512B
:0C1C6500DCEA121CBB7D807F8E021CCBD1
:101C7100754A80E4FD7F8E121CCB7C07121913FD7F
:101C8100AF4A121CCB740129F9E43AFA054A054A14
:091C9100DCEA7D807F8E021CCB91
:101BAA007551807F81121DACEF30E729E4FD7F8EED
:101BBA00121CCB7C07121913FDAF51121CCB7401F6
:101BCA0029F9E43AFA05510551DCEA121CBB7D8079
:051BDA007F8E121CCB00
:011BDF0022E3
:101C13007F81121DAC8F147F83121DAC8F117F85C2
:101C2300121DAC8F167F87121DAC8F157F89121D75
:101C3300AC8F107F8B121DAC8F127F8D121DAC8F5A
:021C430013226A
:1015B5000000E00F1010082008201010E00F0000B8
:1015C500000010201020F83F00200020000000003F
:1015D5000000703008280824082288217030000097
:1015E500000030180820882088204811300E00009F
:1015F50000000007C00420241024F83F0024000048
:101605000000F8190821882088200811080E00001C
:101615000000E00F1011882088201811000E00002E
:10162500000038000800083FC80038000800000026
:101635000000701C8822082108218822701C0000E7
:101645000000E0001031082208221011E00F000010
:10165500000000000000C030C030000000000000A5
:1016650000000000000000100008F80748014801CC
:101675004801480148114811F81F0000000000000A
:101685000000000000000000F81F8808880888088E
:101695008808880888088808F81F000000000000EE
:1016A5000000FC3F841084108410FC3F00001000F3
:1016B5001001100610401080FF7F10001000000080
:1016C5008000408020409020881886078000804058
:1016D500808083408C3F1000200040008000000087
:1016E50024082406A401FEFF230122060081C080F0
:1016F50038400040FF270010080C10036000000070
:081DB7007F787EFADEFEDFFA00
:011DBF002201
:0E1D800000007F167E037DE3DDFEDEFCDFFA51
:011D8E002232
:061D8F00D2A0C2A0C2A315
:081D95007F3F7E07DEFEDFFA4E
:011D9D002223
:10002600E51E6003020576F551E516C4540FFF750B
:10003600F010A424B5F582E5F03415F58375F002C9
:10004600E551121964E493F55275F010EFA424B645
:10005600F582E5F03415F58375F002E55112196461
:10006600E493F553E510C4540FFF75F010A424B5BE
:10007600F582E5F03415F58375F002E55112196441
:10008600E493F55475F010EFA424B6F582E5F03448
:1000960015F58375F002E551121964E493F555F5EB
:1000A60059E4FBFDFF12199F855559E4FBFDFF122C
:1000B6001ADCE4F559AB52AD53AF54121ADCE4F531
:1000C60059AB52AD53AF5412199F121D8F20060C17
:1000D6000551E551C39408500302002FD2A3E4F55D
:1000E60051E516540FFF75F010A424B5F582E5F01E
:1000F6003415F58375F002E551121964E493F5524F
:1001060075F010EFA424B6F582E5F03415F5837585
:10011600F002E551121964E493F553E510540FFF0C
:1001260075F010A424B5F582E5F03415F58375F065
:1001360002E551121964E493F55475F010EFA42406
:10014600B6F582E5F03415F58375F002E55112191E
:1001560064E493F555F559E4FBFDFF12199F8555A7
:1001660059E4FBFDFF121ADCE4F559AB52AD53AF6F
:1001760054121ADCE4F559AB52AD53AF5412199F21
:10018600121D8F20060C0551E551C3940850030239
:1001960000E7D2A3E4F55175F002E551A42455F524
:1001A60082E5F03416F583E493F55275F002E551D5
:1001B600A42456F582E5F03416F583E493F55375D9
:1001C600F002E551A42465F582E5F03416F583E4E2
:1001D60093F55475F002E551A42466F582E5F034F2
:1001E60016F583E493F555F559E4FBFDFF12199FC7
:1001F600855559E4FBFDFF121ADCE4F559AB52AD07
:1002060053AF54121ADCE4F559AB52AD53AF541246
:10021600199F121D8F20060C0551E551C3940850F5
:100226000302019DD2A3E4F551E511C4540FFF75F5
:10023600F010A424B5F582E5F03415F58375F002C7
:10024600E551121964E493F55275F010EFA424B643
:10025600F582E5F03415F58375F002E5511219645F
:10026600E493F55375F002E551A42475F582E5F0A3
:100276003416F583E493F55475F002E551A424761B
:10028600F582E5F03416F583E493F555F559E4FB6C
:10029600FDFF12199F855559E4FBFDFF121ADCE498
:1002A600F559AB52AD53AF54121ADCE4F559AB52C3
:1002B600AD53AF5412199F121D8F20060C0551E540
:1002C60051C39408500302022FD2A3E4F551E5115D
:1002D600540FFF75F010A424B5F582E5F03415F53A
:1002E6008375F002E551121964E493F55275F01026
:1002F600EFA424B6F582E5F03415F58375F002E532
:1003060051121964E493F553E515C4540FFF75F0C3
:1003160010A424B5F582E5F03415F58375F002E5F1
:1003260051121964E493F55475F010EFA424B6F550
:1003360082E5F03415F58375F002E551121964E48F
:1003460093F555F559E4FBFDFF12199F855559E4C0
:10035600FBFDFF121ADCE4F559AB52AD53AF541254
:100366001ADCE4F559AB52AD53AF5412199F121D66
:100376008F20060C0551E551C3940850030202D4A0
:10038600D2A3E4F55175F002E551A42455F582E5B2
:10039600F03416F583E493F55275F002E551A42482
:1003A60056F582E5F03416F583E493F553E51554D6
:1003B6000FFF75F010A424B5F582E5F03415F5832A
:1003C60075F002E551121964E493F55475F010EFD7
:1003D600A424B6F582E5F03415F58375F002E551EF
:1003E600121964E493F555F559E4FBFDFF12199FC4
:1003F600855559E4FBFDFF121ADCE4F559AB52AD05
:1004060053AF54121ADCE4F559AB52AD53AF541244
:10041600199F121D8F20060C0551E551C3940850F3
:100426000302038BD2A3E4F551E514C4540FFF7500
:10043600F010A424B5F582E5F03415F58375F002C5
:10044600E551121964E493F55275F010EFA424B641
:10045600F582E5F03415F58375F002E5511219645D
:10046600E493F55375F002E551A42485F582E5F091
:100476003416F583E493F55475F002E551A4248609
:10048600F582E5F03416F583E493F555F559E4FB6A
:10049600FDFF12199F855559E4FBFDFF121ADCE496
:1004A600F559AB52AD53AF54121ADCE4F559AB52C1
:1004B600AD53AF5412199F121D8F20060C0551E53E
:1004C60051C39408500302042FD2A3E4F551E51456
:1004D600540FFF75F010A424B5F582E5F03415F538
:1004E6008375F002E551121964E493F55275F01024
:1004F600EFA424B6F582E5F03415F58375F002E530
:1005060051121964E493F55375F002E551A424954C
:10051600F582E5F03416F583E493F55475F002E5BB
:1005260051A42496F582E5F03416F583E493F55547
:10053600F559E4FBFDFF12199F855559E4FBFDFFB4
:10054600121ADCE4F559AB52AD53AF54121ADCE47F
:10055600F559AB52AD53AF5412199F121D8F200699
:100566000C0551E551C3940850030204D4D2A322CA
:10057600E51E64016003020727F55175F002E55197
:10058600A424A5F582E5F03416F583E493F55275B7
:10059600F002E551A424A6F582E5F03416F583E4CD
:1005A60093F553E4F559FBFDFF12199FE4F559FB4A
:1005B600FDFF121ADCE4F559AB52AD53FF121ADCFB
:1005C600E4F559AB52AD53FF12199F121D8F055119
:1005D600E551C3940840A4D2A3E4F55175F002E5B1
:1005E60051A424B5F582E5F03416F583E493F5526B
:1005F60075F002E551A424B6F582E5F03416F583CC
:10060600E493F553E4F559FBFDFF12199FE4F55900
:10061600FBFDFF121ADCE4F559AB52AD53FF121A7B
:10062600DCE4F559AB52AD53FF12199F121D8F052D
:1006360051E551C3940840A4D2A3E4F551E516C48C
:10064600540FFF75F010A424B5F582E5F03415F5C6
:100656008375F002E551121964E493F55275F010B2
:10066600EFA424B6F582E5F03415F58375F002E5BE
:1006760051121964E493F553E4F559FBFDFF121981
:100686009FE4F559FBFDFF121ADCE4F559AB52ADB8
:1006960053FF121ADCE4F559AB52AD53FF12199F02
:1006A600121D8F0551E551C394084091D2A3E4F57C
:1006B60051E516540FFF75F010A424B5F582E5F048
:1006C6003415F58375F002E551121964E493F55279
:1006D60075F010EFA424B6F582E5F03415F58375B0
:1006E600F002E551121964E493F553E4F559FBFD64
:1006F600FF12199FE4F559FBFDFF121ADCE4F559C8
:10070600AB52AD53FF121ADCE4F559AB52AD53FFB1
:1007160012199F121D8F0551E551C394084092D2BC
:10072600A3E51E640260030208D8F55175F002E5E0
:1007360051A424C5F582E5F03416F583E493F55209
:1007460075F002E551A424C6F582E5F03416F5836A
:10075600E493F553E4F559FBFDFF12199FE4F559AF
:10076600FBFDFF121ADCE4F559AB52AD53FF121A2A
:10077600DCE4F559AB52AD53FF12199F121D8F05DC
:1007860051E551C3940840A4D2A3E4F55175F00293
:10079600E551A424D5F582E5F03416F583E493F506
:1007A6005275F002E551A424D6F582E5F03416F52B
:1007B60083E493F553E4F559FBFDFF12199FE4F525
:1007C60059FBFDFF121ADCE4F559AB52AD53FF128B
:1007D6001ADCE4F559AB52AD53FF12199F121D8F67
:1007E6000551E551C3940840A4D2A3E4F551E5119F
:1007F600C4540FFF75F010A424B5F582E5F0341546
:10080600F58375F002E551121964E493F55275F01B
:1008160010EFA424B6F582E5F03415F58375F002E1
:10082600E551121964E493F553E4F559FBFDFF1203
:10083600199FE4F559FBFDFF121ADCE4F559AB529A
:10084600AD53FF121ADCE4F559AB52AD53FF121942
:100856009F121D8F0551E551C394084091D2A3E420
:10086600F551E511540FFF75F010A424B5F582E596
:10087600F03415F58375F002E551121964E493F529
:100886005275F010EFA424B6F582E5F03415F58321
:1008960075F002E551121964E493F553E4F559FB3A
:1008A600FDFF12199FE4F559FBFDFF121ADCE4F572
:1008B60059AB52AD53FF121ADCE4F559AB52AD53A6
:1008C600FF12199F121D8F0551E551C394084092DE
:1008D600D2A3E51E64036003020A89F55175F0028E
:1008E600E551A424E5F582E5F03416F583E493F5A5
:1008F6005275F002E551A424E6F582E5F03416F5CA
:1009060083E493F553E4F559FBFDFF12199FE4F5D3
:1009160059FBFDFF121ADCE4F559AB52AD53FF1239
:100926001ADCE4F559AB52AD53FF12199F121D8F15
:100936000551E551C3940840A4D2A3E4F55175F0DE
:1009460002E551A424F5F582E5F03416F583E49327
:10095600F55275F002E551A424F6F582E5F0341659
:10096600F583E493F553E4F559FBFDFF12199FE473
:10097600F559FBFDFF121ADCE4F559AB52AD53FFF6
:10098600121ADCE4F559AB52AD53FF12199F121D32
:100996008F0551E551C3940840A4D2A3E4F551E56F
:1009A60014C4540FFF75F010A424B5F582E5F03495
:1009B60015F58375F002E551121964E493F5527545
:1009C600F010EFA424B6F582E5F03415F58375F042
:1009D60002E551121964E493F553E4F559FBFDFF62
:1009E60012199FE4F559FBFDFF121ADCE4F559AB29
:1009F60052AD53FF121ADCE4F559AB52AD53FF1258
:100A0600199F121D8F0551E551C394084091D2A339
:100A1600E4F551E514540FFF75F010A424B5F582E2
:100A2600E5F03415F58375F002E551121964E49387
:100A3600F55275F010EFA424B6F582E5F03415F5FD
:100A46008375F002E551121964E493F553E4F55900
:100A5600FBFDFF12199FE4F559FBFDFF121ADCE4BA
:100A6600F559AB52AD53FF121ADCE4F559AB52AD52
:100A760053FF12199F121D8F0551E551C39408406B
:100A860092D2A3E51E64046003020C3AF55175F098
:100A960002E551A42465F582E5F03416F583E49366
:100AA600F55275F002E551A42466F582E5F0341698
:100AB600F583E493F553E4F559FBFDFF12199FE422
:100AC600F559FBFDFF121ADCE4F559AB52AD53FFA5
:100AD600121ADCE4F559AB52AD53FF12199F121DE1
:100AE6008F0551E551C3940840A4D2A3E4F551758E
:100AF600F002E551A42475F582E5F03416F583E499
:100B060093F55275F002E551A42476F582E5F034AA
:100B160016F583E493F553E4F559FBFDFF12199F8F
:100B2600E4F559FBFDFF121ADCE4F559AB52AD535F
:100B3600FF121ADCE4F559AB52AD53FF12199F129E
:100B46001D8F0551E551C3940840A4D2A3E4F55185
:100B5600E510C4540FFF75F010A424B5F582E5F036
:100B66003415F58375F002E551121964E493F552D4
:100B760075F010EFA424B6F582E5F03415F583750B
:100B8600F002E551121964E493F553E4F559FBFDBF
:100B9600FF12199FE4F559FBFDFF121ADCE4F55923
:100BA600AB52AD53FF121ADCE4F559AB52AD53FF0D
:100BB60012199F121D8F0551E551C394084091D219
:100BC600A3E4F551E510540FFF75F010A424B5F514
:100BD60082E5F03415F58375F002E551121964E4E7
:100BE60093F55275F010EFA424B6F582E5F03415AE
:100BF600F58375F002E551121964E493F553E4F5B3
:100C060059FBFDFF12199FE4F559FBFDFF121ADC93
:100C1600E4F559AB52AD53FF121ADCE4F559AB5269
:100C2600AD53FF12199F121D8F0551E551C394084C
:100C36004092D2A3E51E64056003020DEBF55175E3
:100C4600F002E551A42485F582E5F03416F583E437
:100C560093F55275F002E551A42486F582E5F03449
:100C660016F583E493F553E4F559FBFDFF12199F3E
:100C7600E4F559FBFDFF121ADCE4F559AB52AD530E
:100C8600FF121ADCE4F559AB52AD53FF12199F124D
:100C96001D8F0551E551C3940840A4D2A3E4F55134
:100CA60075F002E551A42495F582E5F03416F58336
:100CB600E493F55275F002E551A42496F582E5F029
:100CC6003416F583E493F553E4F559FBFDFF121949
:100CD6009FE4F559FBFDFF121ADCE4F559AB52AD62
:100CE60053FF121ADCE4F559AB52AD53FF12199FAC
:100CF600121D8F0551E551C3940840A4D2A3E4F513
:100D060051E515C4540FFF75F010A424B5F582E51E
:100D1600F03415F58375F002E551121964E493F584
:100D26005275F010EFA424B6F582E5F03415F5837C
:100D360075F002E551121964E493F553E4F559FB95
:100D4600FDFF12199FE4F559FBFDFF121ADCE4F5CD
:100D560059AB52AD53FF121ADCE4F559AB52AD5301
:100D6600FF12199F121D8F0551E551C3940840913A
:100D7600D2A3E4F551E515540FFF75F010A424B580
:100D8600F582E5F03415F58375F002E55112196424
:100D9600E493F55275F010EFA424B6F582E5F0342D
:100DA60015F58375F002E551121964E493F553E4E1
:100DB600F559FBFDFF12199FE4F559FBFDFF121AC9
:100DC600DCE4F559AB52AD53FF121ADCE4F559AB2E
:100DD60052AD53FF12199F121D8F0551E551C39451
:050DE600084092D2A3B9
:010DEB0022E5
:031ABA00015D00CB
:03000B00021D5C77
:101D5C00C0E0C0D00563E563D394FA4002D202D050
:041D6C00D0D0E032C1
:10170500E4F548C2AAF55A755B00755C5EFFE4FE18
:1017150074FA2548F582E43400F583E0FDD394049A
:1017250040047C0180027C00EDC3940950047D01D6
:1017350080027D00ED5C601BAB5AAA5BA95C1219A7
:1017450013C31312192CAB5AAA5BA95C12191354B3
:101755007F804174FA2548F582E43400F583E0FD85
:10176500D3940B40047C0180027C00EDC39410509F
:10177500047D0180027D00ED5C601CAB5AAA5BA96B
:101785005C121913C31312192CAB5AAA5BA95C126C
:101795001913448012192C05480EEE6408600302E3
:1017A50017157401255CF55CE4355BF55B0FEF649B
:1017B500046003021713E5612560FFE433FEEFF4CF
:0F17C5004E7007856062D20180037562FFD2AA61
:0117D40022F2
:03001300021A05C9
:0B1A0500C0E0C083C082C0D075D008D4
:101A1000D28C85636475630030020EC202755D006E
:101A2000756300C203C200803EA20072035020AF63
:101A30005D055D74FA2FF582E43400F583E564F00A
:101A4000E55DB4200A755D00C203C28C121705E57E
:101A500064D394354005D203755D00E564D3947278
:071A60004005D200755D0096
:091A6700D0D0D082D083D0E0324F
:0E1D9E00E4F5C7F5C5F5C675C3FF75C4FF2291
:101B3000AD07AC06C2AF75C78275C5018CC3AF05D2
:101B40008FC475C65A75C6A500E5C212192C0DBD05
:101B500000010C740129F9E43AFAE55715577002AF
:0D1B6000155614455670D5121D9ED2AF22A9
:101C9A00AD07AC06C2AF75C78275C5018CC3AF0567
:101CAA008FC475C65A75C6A500121D9ED2AFAFC2A3
:011CBA002207
:101CDA00AD07AC06C2AF8CC3AF058FC475C782759A
:0F1CEA00C50375C65A75C6A500121D9ED2AF223E
:101B6D00AD07AC06C2AF75C78275C5028CC3AF0594
:101B7D008FC4121913F5C275C65A75C6A5000DBDD1
:101B8D0000010C740129F9E43AFAE5501550700280
:0D1B9D00154F14454F70D5121D9ED2AF227A
:101ABD00C107016700016500016800026A000001AD
:051ACD00690001660044
:0C001600C2AF8F993099FDC299D2AF2281
:030023000213F5D0
:1013F500C0E0C0F0C083C082C0D075D000C000C0BE
:0D14050001C002C003C004C005C006C0073E
:1014120020980302159AC298AF99E56514601A14D0
:10142200602414602E14603814606424057067EF21
:10143200645A706575650180608F6CE56C2567F58F
:101442006775650280538F66E5662567F567756582
:101452000380468F6DE56D2567F5677565048039F4
:10146200E568C3956D5016EF2567F567740025682A
:10147200F582E43400F583EFF00568801CE567B57A
:10148200070B756700756800756505800C8007BFDE
:10149200A507D207800075650020070302159AC2CE
:1014A20007E56C14B40800400302159A9014BC7549
:1014B200F003A4C58325F0C583730214D40214EF8C
:1014C20002150E02152E0215430215680215860238
:1014D2001593754932E5497F0025E0FE121CDA05B5
:1014E20049E549C3946A40ED756A648019754900FB
:1014F200E5497F0025E0FE121CDA0549E549C3945F
:101502003240ED756A00756B0002158F7B017A001F
:101512007900754F00856D50AF6BAE6A121B6DE599
:101522006D256BF56BE4356AF56A80617B017A00A3
:101532007900754F00856D50AF6BAE6A121B6D80DE
:101542004CE56B2432FFE4356AFE7B017A007900B8
:10155200754F00856D50121B6DE56D256BF56BE4C3
:10156200356AF56A8027756EF1754900AF6E056EB2
:10157200A807E6FF1200160549E549C3940740ECA7
:101582007F5680117B017A007900121C717F0680E0
:0815920004AF660566120016A5
:10159A00D007D006D005D004D003D002D001D000A5
:0B15AA00D0D0D082D083D0F0D0E0324F
:030000000218875C
:0C188700787FE4F6D8FD75816E0218CE63
:10191300BB010689828A83E0225002E722BBFE02D2
:09192300E32289828A83E4932205
:10192C00BB010689828A83F0225002F722BBFE019A
:02193C00F32294
:10193E00E8600FECC313FCED13FDEE13FEEF13FF87
:03194E00D8F122AB
:10195100E8600FEFC333FFEE33FEED33FDEC33FCF4
:03196100D8F12298
:0C196400A42582F582E5F03583F583228E
:10197000D083D082F8E4937012740193700DA3A306
:1019800093F8740193F5828883E47374029368601A
:06199000EFA3A3A380DF1A
:10189300020DECE493A3F8E493A34003F68001F272
:1018A30008DFF48029E493A3F85407240CC8C33356
:1018B300C4540F4420C8834004F456800146F6DF25
:1018C300E4800B0102040810204080901A70E47E2B
:1018D300019360BCA3FF543F30E509541FFEE4931A
:1018E300A360010ECF54C025E060A840B8E493A3E1
:1018F300FAE493A3F8E493A3C8C582C8CAC583CA0C
:10190300F0A3C8C582C8CAC583CADFE9DEE780BEC3
:011AD2000013
:00000001FF
