:101A6500013D00014400C104C106C1050241000059
:101A7500023F0000022A0000022C0000023B000089
:101A8500013900013A000226000002280000013851
:101A950001012500022E0000042100000001013E85
:011AA50042FE
:03000300020006F2
:03000600D20632ED
:101D2400E4F53DC2A1EF339290EF25E0FFD2A10587
:071D34003DE53DB402ED2284
:101D0B00E4F53DC2A1EF339290EF25E025E0FFD241
:091D1B00A1053DE53DB404EB22F5
:101CEE00EF25E0FFE4F53DC2A1EF339290EF25E042
:0D1CFE0025E0FFD2A1053DE53DB404EB2239
:091AC800853E59AB3EAD3EAF3E38
:101AD100E4FEC2A1EF339290EF25E025E0FFD2A111
:101AE1000EBE04EEE4FEC2A1ED339290ED25E02599
:101AF100E0FDD2A10EBE04EEE4FEC2A1EB33929052
:101B0100EB25E025E0FBD2A10EBE04EEE4FEC2A16E
:101B1100E559339290E55925E025E0F559D2A10E1A
:031B2100BE04EB14
:011B2400229E
:09198B00853E59AB3EAD3EAF3E76
:10199400EF25E0FFED25E0FDEB25E0FBE55925E033
:1019A400F559E4FEC2A1EF339290EF25E025E0FF64
:1019B400D2A10EBE04EEE4FEC2A1ED339290ED2559
:1019C400E025E0FDD2A10EBE04EEE4FEC2A1EB339D
:1019D4009290EB25E025E0FBD2A10EBE04EEE4FEDE
:1019E400C2A1E559339290E55925E025E0F559D295
:0519F400A10EBE04EB92
:0119F90022CB
:101BD500538E7F5389F0758A12758CFFC28DD2A9F9
:101BE500759850538EBF538EFE53890FD2AC758BAB
:101BF500D8758DFFC2ABD28ED288D2A8D28AD2AA8E
:031C0500C2AF2249
:100DEC00121BD57B007A007917121B9F7F551200BE
:100DFC001612198B121AC8121AC812198BD2A0C249
:100E0C00A0C2A37F007E64121C8FEF7F00FEC00681
:100E1C00C0070F7E64121C8FEFFDD0E02DFFD0E0D9
:100E2C003400FEEFC4F8540FC868F527EEC454F034
:100E3C0048F5267F027E64121C8FEF7F00FEC006F1
:100E4C00C0077F037E64121C8FEFFDD0E02DFFD016
:100E5C00E03400FEEFC4F8540FC868FFEEC454F041
:100E6C0048FEEF2478F529EE34FFF528E527240415
:100E7C00F52FE43526F52E74782527F52774FF35E4
:100E8C0026F526E4FFFE121C8FEF14F539E4F53E2F
:100E9C00E53ED395395031E53E2401FFE433FE1293
:100EAC001C8F74D2253EF582E43400F583EFF07488
:100EBC00D2253EF582E43400F583E0253CF53CE494
:100ECC00353BF53B053E80C8756EF1E4F53EAF6EE3
:100EDC00056EA807E6FF74C8253EF582E43400F5DC
:100EEC0083EFF074C8253EF582E43400F583E0FF0F
:100EFC00120016053EE53EC3940740D29000C8E0B0
:100F0C0064F4602C7559557B557D557F5512199499
:100F1C007559557B557D557F55121AD1E4F559FB02
:100F2C00FDFF121AD1E4F559FBFDFF12199480FE56
:100F3C00D2AF2006030212C4C206D204200103025F
:100F4C001049C201E56212196510380810240C0F03
:100F5C00EF151029180FB4190F7440101F45100607
:100F6C0047102E5E00001046E538B402077D01AF35
:100F7C001E1217CAE538640460030210460525E505
:100F8C0025D395394009E4F525F53FF540F53AE5CB
:100F9C003A2540F540E4353FF53F74D22525F582DE
:100FAC00E43400F583021043E538B40207E4FDAFE6
:100FBC001E1217CAE53864046003021046E525D3F7
:100FCC0094004076152574D22525F582E43400F57D
:100FDC0083E0F53AFFC3E5409FF540E53F9400F50B
:100FEC003F8057E538B4020E051EE51ED39405402C
:100FFC0049E4F51E8044B20580407B007A007917E5
:10100C00121C3AE4FD7F8E121CC07DA57F90121C31
:10101C00C080277538058022753801800875380224
:10102C008018753803E4F53FF540800E753804E4FC
:10103C00F53FF5409000D2E0F53AE4F562E538244E
:10104C00FE700302118D14700302119C14700302C4
:10105C001240240360030212C4200510052BE52B5B
:10106C007002052A052DE52D7002052CD3E52B9574
:10107C0027E52A95264005E4F52AF52BD3E52D9591
:10108C0029E52C95284005E4F52CF52DE4F541F5E2
:10109C0042854759E4FBFDFF121994854759E4FB3F
:1010AC00FDFF121AD1AF46121D0BE4FF121D24AF27
:1010BC0045121D0BAF43121D0BE4FF121D24AF464E
:1010CC00121CEEE4FF121D24AF45121CEEAF4312AE
:1010DC001CEEE4FF121D24D2A0C2A0C2A3121D8AD2
:1010EC00E542252BFFE541352AFEEF25E0FFEE33E7
:1010FC00FEE42FFFEE3464FE121C8F8F43E5422575
:10110C002BFFE541352AFEEF25E0FFEE33FEEF2401
:10111C0001FFEE3464FE121C8F8F45E542252FCF64
:10112C00E541352ECF252DCF352CFEEF25E0FFEEFA
:10113C0033FEE42FFFEE3464FE121C8F8F46E54223
:10114C00252FCFE541352ECF252DCF352CFEEF2584
:10115C00E0FFEE33FEEF2401FFEE3464FE121C8F31
:10116C008F47D2A33006030212C40542E542700237
:10117C000541C39488E5419400500302109D02126E
:10118C00C4121C08120026121DAC1200260212C436
:10119C002005080540E5407002053FD3E540953C2D
:1011AC00E53F953B4005E4F53FF540853F418540E3
:1011BC0042E5402488FFE4353FFEC3E5429FE5410C
:1011CC009E40030212C4853459AB35AD36AF37128D
:1011DC001994853459AB35AD36AF37121AD18530E9
:1011EC0059AB31AD32AF33121AD1853059AB31AD69
:1011FC0032AF33121994D2A0C2A0C2A3E542AE41C1
:10120C007803C333CE33CED8F92432FFE43EFE7BD1
:10121C00007A007930755600755708121B25121D7F
:10122C008AD2A33006030212C40542E5427082053D
:10123C00410211BD853F418540427E00E540253A83
:10124C00FFEE353FFEC3E5429FE5419E506A853473
:10125C0059AB35AD36AF37121994853459AB35AD22
:10126C0036AF37121AD1853059AB31AD32AF33129C
:10127C001AD1853059AB31AD32AF33121994D2A09B
:10128C00C2A0C2A3E542AE417803C333CE33CED85D
:10129C00F92432FFE43EFE7B007A0079307556006B
:1012AC00755708121B25121D8AD2A320060A054267
:1012BC00E542708605418082300403020F3E053DF5
:1012CC00E53DD39420400CE4752401F523F522F57B
:1012DC0021F53DAF24AE23AD22AC21781812193381
:1012EC00C007AF24AE23AD22AC217810121933AD58
:1012FC0007C005AF24AE23AD22AC217808121933F8
:10130C00AB07852459D005D007121994AF24AE230E
:10131C00AD22AC217818121933C007AF24AE23AD1F
:10132C0022AC217810121933AD07C005AF24AE23BF
:10133C00AD22AC217808121933AB07852459D0059E
:10134C00D007121AD1AF24AE23AD22AC21781812DB
:10135C001933C007AF24AE23AD22AC21781012197B
:10136C0033AD07C005AF24AE23AD22AC21780812F3
:10137C001933AB07852459D005D007121AD1AF24E5
:10138C00AE23AD22AC217818121933C007AF24AEAE
:10139C0023AD22AC217810121933AD07C005AF2450
:1013AC00AE23AD22AC217808121933AB0785245932
:1013BC00D005D007121994D2A0C2A0C2A320041D3C
:1013CC00121D75D2A3AF24AE23AD22AC217801122D
:0E13DC0019468F248E238D228C21020F3E2273
:091AA600071700102220050415A9
:0217CA008D513F
:1017CC00BF0109755284755417E4F555BF020975AC
:1017DC00528275543BE4F555BF030975528075541C
:1017EC003BE4F555BF040975528875540C755501C9
:1017FC00BF050975528675541F755501BF060975CD
:10180C00528A755407755501E55204FF121DA1EF5C
:10181C00C4540F75F00AA4FFC007E55204FF121D53
:10182C00A1EF540FFED0E02EF553E551B4010405A1
:10183C005380021553E553D395544003855553E516
:10184C0053C395555003855453E4FD7F8E121CC031
:10185C00E55375F00A84C454F0FFE55375F00A841F
:10186C00EF25F0FDAF52121CC07D807F8E021CC094
:061D3B00C2B6C2B4D2B62C
:0F1D4100EF7F08A2E092B5D2B4C2B4C313DFF4AF
:011D50002270
:0F1D65007F08C313A2B592E7D2B4C2B4DFF4FF74
:011D7400224C
:101CB000E4FD7FC6121CC07FC8121CC07D9B7FC480
:0F1CC000AE05121D3BAF06121D41D2B4C2B622B3
:0A1DA100121D3B121D65D2B4C2B63C
:011DAB002215
:101C3A00755180E4FD7F8E121CC07C07121908FDC5
:101C4A00AF51121CC0740129F9E43AFA0551055141
:0C1C5A00DCEA121CB07D807F8E021CC0F2
:101C6600754A80E4FD7F8E121CC07C07121908FDA0
:101C7600AF4A121CC0740129F9E43AFA054A054A2A
:091C8600DCEA7D807F8E021CC0A7
:101B9F007551807F81121DA1EF30E729E4FD7F8E03
:101BAF00121CC07C07121908FDAF51121CC0740122
:101BBF0029F9E43AFA05510551DCEA121CB07D808F
:051BCF007F8E121CC016
:011BD40022EE
:101C08007F81121DA18F147F83121DA18F117F85E3
:101C1800121DA18F167F87121DA18F157F89121D96
:101C2800A18F107F8B121DA18F127F8D121DA18F86
:021C3800132275
:1015AA000000E00F1010082008201010E00F0000C3
:1015BA00000010201020F83F00200020000000004A
:1015CA0000007030082808240822882170300000A2
:1015DA00000030180820882088204811300E0000AA
:1015EA0000000007C00420241024F83F0024000053
:1015FA000000F8190821882088200811080E000028
:10160A000000E00F1011882088201811000E000039
:10161A00000038000800083FC80038000800000031
:10162A000000701C8822082108218822701C0000F2
:10163A000000E0001031082208221011E00F00001B
:10164A00000000000000C030C030000000000000B0
:10165A0000000000000000100008F80748014801D7
:10166A004801480148114811F81F00000000000015
:10167A000000000000000000F81F88088808880899
:10168A008808880888088808F81F000000000000F9
:10169A000000FC3F841084108410FC3F00001000FE
:1016AA001001100610401080FF7F1000100000008B
:1016BA008000408020409020881886078000804063
:1016CA00808083408C3F1000200040008000000092
:1016DA0024082406A401FEFF230122060081C080FB
:1016EA0038400040FF270010080C1003600000007B
:081DAC007F787EAADEFEDFFA5B
:011DB400220C
:0E1D750000007F167E037DE3DDFEDEFCDFFA5C
:011D8300223D
:061D8400D2A0C2A0C2A320
:081D8A007F3F7E07DEFEDFFA59
:011D9200222E
:10002600E51E6003020576F551E516C4540FFF750B
:10003600F010A424AAF582E5F03415F58375F002D4
:10004600E551121959E493F55275F010EFA424AB5B
:10005600F582E5F03415F58375F002E5511219596C
:10006600E493F553E510C4540FFF75F010A424AAC9
:10007600F582E5F03415F58375F002E5511219594C
:10008600E493F55475F010EFA424ABF582E5F03453
:1000960015F58375F002E551121959E493F555F5F6
:1000A60059E4FBFDFF121994855559E4FBFDFF1237
:1000B6001AD1E4F559AB52AD53AF54121AD1E4F547
:1000C60059AB52AD53AF54121994121D8420060C2D
:1000D6000551E551C39408500302002FD2A3E4F55D
:1000E60051E516540FFF75F010A424AAF582E5F029
:1000F6003415F58375F002E551121959E493F5525A
:1001060075F010EFA424ABF582E5F03415F5837590
:10011600F002E551121959E493F553E510540FFF17
:1001260075F010A424AAF582E5F03415F58375F070
:1001360002E551121959E493F55475F010EFA42411
:10014600ABF582E5F03415F58375F002E551121929
:1001560059E493F555F559E4FBFDFF1219948555BD
:1001660059E4FBFDFF121AD1E4F559AB52AD53AF7A
:1001760054121AD1E4F559AB52AD53AF5412199437
:10018600121D8420060C0551E551C3940850030244
:1001960000E7D2A3E4F55175F002E551A4244AF52F
:1001A60082E5F03416F583E493F55275F002E551D5
:1001B600A4244BF582E5F03416F583E493F55375E4
:1001C600F002E551A4245AF582E5F03416F583E4ED
:1001D60093F55475F002E551A4245BF582E5F034FD
:1001E60016F583E493F555F559E4FBFDFF121994D2
:1001F600855559E4FBFDFF121AD1E4F559AB52AD12
:1002060053AF54121AD1E4F559AB52AD53AF541251
:100216001994121D8420060C0551E551C39408500B
:100226000302019DD2A3E4F551E511C4540FFF75F5
:10023600F010A424AAF582E5F03415F58375F002D2
:10024600E551121959E493F55275F010EFA424AB59
:10025600F582E5F03415F58375F002E5511219596A
:10026600E493F55375F002E551A4246AF582E5F0AE
:100276003416F583E493F55475F002E551A4246B26
:10028600F582E5F03416F583E493F555F559E4FB6C
:10029600FDFF121994855559E4FBFDFF121AD1E4AE
:1002A600F559AB52AD53AF54121AD1E4F559AB52CE
:1002B600AD53AF54121994121D8420060C0551E556
:1002C60051C39408500302022FD2A3E4F551E5115D
:1002D600540FFF75F010A424AAF582E5F03415F545
:1002E6008375F002E551121959E493F55275F01031
:1002F600EFA424ABF582E5F03415F58375F002E53D
:1003060051121959E493F553E515C4540FFF75F0CE
:1003160010A424AAF582E5F03415F58375F002E5FC
:1003260051121959E493F55475F010EFA424ABF566
:1003360082E5F03415F58375F002E551121959E49A
:1003460093F555F559E4FBFDFF121994855559E4CB
:10035600FBFDFF121AD1E4F559AB52AD53AF54125F
:100366001AD1E4F559AB52AD53AF54121994121D7C
:100376008420060C0551E551C3940850030202D4AB
:10038600D2A3E4F55175F002E551A4244AF582E5BD
:10039600F03416F583E493F55275F002E551A42482
:1003A6004BF582E5F03416F583E493F553E51554E1
:1003B6000FFF75F010A424AAF582E5F03415F58335
:1003C60075F002E551121959E493F55475F010EFE2
:1003D600A424ABF582E5F03415F58375F002E551FA
:1003E600121959E493F555F559E4FBFDFF121994DA
:1003F600855559E4FBFDFF121AD1E4F559AB52AD10
:1004060053AF54121AD1E4F559AB52AD53AF54124F
:100416001994121D8420060C0551E551C394085009
:100426000302038BD2A3E4F551E514C4540FFF7500
:10043600F010A424AAF582E5F03415F58375F002D0
:10044600E551121959E493F55275F010EFA424AB57
:10045600F582E5F03415F58375F002E55112195968
:10046600E493F55375F002E551A4247AF582E5F09C
:100476003416F583E493F55475F002E551A4247B14
:10048600F582E5F03416F583E493F555F559E4FB6A
:10049600FDFF121994855559E4FBFDFF121AD1E4AC
:1004A600F559AB52AD53AF54121AD1E4F559AB52CC
:1004B600AD53AF54121994121D8420060C0551E554
:1004C60051C39408500302042FD2A3E4F551E51456
:1004D600540FFF75F010A424AAF582E5F03415F543
:1004E6008375F002E551121959E493F55275F0102F
:1004F600EFA424ABF582E5F03415F58375F002E53B
:1005060051121959E493F55375F002E551A4248A62
:10051600F582E5F03416F583E493F55475F002E5BB
:1005260051A4248BF582E5F03416F583E493F55552
:10053600F559E4FBFDFF121994855559E4FBFDFFBF
:10054600121AD1E4F559AB52AD53AF54121AD1E495
:10055600F559AB52AD53AF54121994121D842006AF
:100566000C0551E551C3940850030204D4D2A322CA
:10057600E51E64016003020727F55175F002E55197
:10058600A4249AF582E5F03416F583E493F55275C2
:10059600F002E551A4249BF582E5F03416F583E4D8
:1005A60093F553E4F559FBFDFF121994E4F559FB55
:1005B600FDFF121AD1E4F559AB52AD53FF121AD111
:1005C600E4F559AB52AD53FF121994121D8405512F
:1005D600E551C3940840A4D2A3E4F55175F002E5B1
:1005E60051A424AAF582E5F03416F583E493F55276
:1005F60075F002E551A424ABF582E5F03416F583D7
:10060600E493F553E4F559FBFDFF121994E4F5590B
:10061600FBFDFF121AD1E4F559AB52AD53FF121A86
:10062600D1E4F559AB52AD53FF121994121D84054E
:1006360051E551C3940840A4D2A3E4F551E516C48C
:10064600540FFF75F010A424AAF582E5F03415F5D1
:100656008375F002E551121959E493F55275F010BD
:10066600EFA424ABF582E5F03415F58375F002E5C9
:1006760051121959E493F553E4F559FBFDFF12198C
:1006860094E4F559FBFDFF121AD1E4F559AB52ADCE
:1006960053FF121AD1E4F559AB52AD53FF12199418
:1006A600121D840551E551C394084091D2A3E4F587
:1006B60051E516540FFF75F010A424AAF582E5F053
:1006C6003415F58375F002E551121959E493F55284
:1006D60075F010EFA424ABF582E5F03415F58375BB
:1006E600F002E551121959E493F553E4F559FBFD6F
:1006F600FF121994E4F559FBFDFF121AD1E4F559DE
:10070600AB52AD53FF121AD1E4F559AB52AD53FFBC
:10071600121994121D840551E551C394084092D2D2
:10072600A3E51E640260030208D8F55175F002E5E0
:1007360051A424BAF582E5F03416F583E493F55214
:1007460075F002E551A424BBF582E5F03416F58375
:10075600E493F553E4F559FBFDFF121994E4F559BA
:10076600FBFDFF121AD1E4F559AB52AD53FF121A35
:10077600D1E4F559AB52AD53FF121994121D8405FD
:1007860051E551C3940840A4D2A3E4F55175F00293
:10079600E551A424CAF582E5F03416F583E493F511
:1007A6005275F002E551A424CBF582E5F03416F536
:1007B60083E493F553E4F559FBFDFF121994E4F530
:1007C60059FBFDFF121AD1E4F559AB52AD53FF1296
:1007D6001AD1E4F559AB52AD53FF121994121D8488
:1007E6000551E551C3940840A4D2A3E4F551E5119F
:1007F600C4540FFF75F010A424AAF582E5F0341551
:10080600F58375F002E551121959E493F55275F026
:1008160010EFA424ABF582E5F03415F58375F002EC
:10082600E551121959E493F553E4F559FBFDFF120E
:100836001994E4F559FBFDFF121AD1E4F559AB52B0
:10084600AD53FF121AD1E4F559AB52AD53FF12194D
:1008560094121D840551E551C394084091D2A3E436
:10086600F551E511540FFF75F010A424AAF582E5A1
:10087600F03415F58375F002E551121959E493F534
:100886005275F010EFA424ABF582E5F03415F5832C
:1008960075F002E551121959E493F553E4F559FB45
:1008A600FDFF121994E4F559FBFDFF121AD1E4F588
:1008B60059AB52AD53FF121AD1E4F559AB52AD53B1
:1008C600FF121994121D840551E551C394084092F4
:1008D600D2A3E51E64036003020A89F55175F0028E
:1008E600E551A424DAF582E5F03416F583E493F5B0
:1008F6005275F002E551A424DBF582E5F03416F5D5
:1009060083E493F553E4F559FBFDFF121994E4F5DE
:1009160059FBFDFF121AD1E4F559AB52AD53FF1244
:100926001AD1E4F559AB52AD53FF121994121D8436
:100936000551E551C3940840A4D2A3E4F55175F0DE
:1009460002E551A424EAF582E5F03416F583E49332
:10095600F55275F002E551A424EBF582E5F0341664
:10096600F583E493F553E4F559FBFDFF121994E47E
:10097600F559FBFDFF121AD1E4F559AB52AD53FF01
:10098600121AD1E4F559AB52AD53FF121994121D48
:10099600840551E551C3940840A4D2A3E4F551E57A
:1009A60014C4540FFF75F010A424AAF582E5F034A0
:1009B60015F58375F002E551121959E493F5527550
:1009C600F010EFA424ABF582E5F03415F58375F04D
:1009D60002E551121959E493F553E4F559FBFDFF6D
:1009E600121994E4F559FBFDFF121AD1E4F559AB3F
:1009F60052AD53FF121AD1E4F559AB52AD53FF1263
:100A06001994121D840551E551C394084091D2A34F
:100A1600E4F551E514540FFF75F010A424AAF582ED
:100A2600E5F03415F58375F002E551121959E49392
:100A3600F55275F010EFA424ABF582E5F03415F508
:100A46008375F002E551121959E493F553E4F5590B
:100A5600FBFDFF121994E4F559FBFDFF121AD1E4D0
:100A6600F559AB52AD53FF121AD1E4F559AB52AD5D
:100A760053FF121994121D840551E551C394084081
:100A860092D2A3E51E64046003020C3AF55175F098
:100A960002E551A4245AF582E5F03416F583E49371
:100AA600F55275F002E551A4245BF582E5F03416A3
:100AB600F583E493F553E4F559FBFDFF121994E42D
:100AC600F559FBFDFF121AD1E4F559AB52AD53FFB0
:100AD600121AD1E4F559AB52AD53FF121994121DF7
:100AE600840551E551C3940840A4D2A3E4F5517599
:100AF600F002E551A4246AF582E5F03416F583E4A4
:100B060093F55275F002E551A4246BF582E5F034B5
:100B160016F583E493F553E4F559FBFDFF1219949A
:100B2600E4F559FBFDFF121AD1E4F559AB52AD536A
:100B3600FF121AD1E4F559AB52AD53FF12199412B4
:100B46001D840551E551C3940840A4D2A3E4F55190
:100B5600E510C4540FFF75F010A424AAF582E5F041
:100B66003415F58375F002E551121959E493F552DF
:100B760075F010EFA424ABF582E5F03415F5837516
:100B8600F002E551121959E493F553E4F559FBFDCA
:100B9600FF121994E4F559FBFDFF121AD1E4F55939
:100BA600AB52AD53FF121AD1E4F559AB52AD53FF18
:100BB600121994121D840551E551C394084091D22F
:100BC600A3E4F551E510540FFF75F010A424AAF51F
:100BD60082E5F03415F58375F002E551121959E4F2
:100BE60093F55275F010EFA424ABF582E5F03415B9
:100BF600F58375F002E551121959E493F553E4F5BE
:100C060059FBFDFF121994E4F559FBFDFF121AD1A9
:100C1600E4F559AB52AD53FF121AD1E4F559AB5274
:100C2600AD53FF121994121D840551E551C3940862
:100C36004092D2A3E51E64056003020DEBF55175E3
:100C4600F002E551A4247AF582E5F03416F583E442
:100C560093F55275F002E551A4247BF582E5F03454
:100C660016F583E493F553E4F559FBFDFF12199449
:100C7600E4F559FBFDFF121AD1E4F559AB52AD5319
:100C8600FF121AD1E4F559AB52AD53FF1219941263
:100C96001D840551E551C3940840A4D2A3E4F5513F
:100CA60075F002E551A4248AF582E5F03416F58341
:100CB600E493F55275F002E551A4248BF582E5F034
:100CC6003416F583E493F553E4F559FBFDFF121949
:100CD60094E4F559FBFDFF121AD1E4F559AB52AD78
:100CE60053FF121AD1E4F559AB52AD53FF121994C2
:100CF600121D840551E551C3940840A4D2A3E4F51E
:100D060051E515C4540FFF75F010A424AAF582E529
:100D1600F03415F58375F002E551121959E493F58F
:100D26005275F010EFA424ABF582E5F03415F58387
:100D360075F002E551121959E493F553E4F559FBA0
:100D4600FDFF121994E4F559FBFDFF121AD1E4F5E3
:100D560059AB52AD53FF121AD1E4F559AB52AD530C
:100D6600FF121994121D840551E551C39408409150
:100D7600D2A3E4F551E515540FFF75F010A424AA8B
:100D8600F582E5F03415F58375F002E5511219592F
:100D9600E493F55275F010EFA424ABF582E5F03438
:100DA60015F58375F002E551121959E493F553E4EC
:100DB600F559FBFDFF121994E4F559FBFDFF121AD4
:100DC600D1E4F559AB52AD53FF121AD1E4F559AB44
:100DD60052AD53FF121994121D840551E551C39467
:050DE600084092D2A3B9
:010DEB0022E5
:031AAF00015D00D6
:03000B00021D5182
:101D5100C0E0C0D00563E563D394FA4002D202D05B
:041D6100D0D0E032CC
:1016FA00E4F548C2AAF55A755B00755C5EFFE4FE24
:10170A0074FA2548F582E43400F583E0FDD39404A5
:10171A0040047C0180027C00EDC3940950047D01E1
:10172A0080027D00ED5C601BAB5AAA5BA95C1219B2
:10173A0008C313121921AB5AAA5BA95C12190854DF
:10174A007F804174FA2548F582E43400F583E0FD90
:10175A00D3940B40047C0180027C00EDC3941050AA
:10176A00047D0180027D00ED5C601CAB5AAA5BA976
:10177A005C121908C313121921AB5AAA5BA95C128D
:10178A001908448012192105480EEE640860030204
:10179A00170A7401255CF55CE4355BF55B0FEF64B1
:1017AA00046003021708E5612560FFE433FEEFF4E5
:0F17BA004E7007856062D20180037562FFD2AA6C
:0117C90022FD
:030013000219FAD5
:0B19FA00C0E0C083C082C0D075D008E0
:101A0500D28C85636475630030020EC202755D0079
:101A1500756300C203C200803EA20072035020AF6E
:101A25005D055D74FA2FF582E43400F583E564F015
:101A3500E55DB4200A755D00C203C28C1216FAE595
:101A450064D394354005D203755D00E564D3947283
:071A55004005D200755D00A1
:091A5C00D0D0D082D083D0E0325A
:0E1D9300E4F5C7F5C5F5C675C3FF75C4FF229C
:101B2500AD07AC06C2AF75C78275C5018CC3AF05DD
:101B35008FC475C65A75C6A500E5C21219210DBD1B
:101B450000010C740129F9E43AFAE55715577002BA
:0D1B5500155614455670D5121D93D2AF22BF
:101C8F00AD07AC06C2AF75C78275C5018CC3AF0572
:101C9F008FC475C65A75C6A500121D93D2AFAFC2B9
:011CAF002212
:101CCF00AD07AC06C2AF8CC3AF058FC475C78275A5
:0F1CDF00C50375C65A75C6A500121D93D2AF2254
:101B6200AD07AC06C2AF75C78275C5028CC3AF059F
:101B72008FC4121908F5C275C65A75C6A5000DBDE7
:101B820000010C740129F9E43AFAE550155070028B
:0D1B9200154F14454F70D5121D93D2AF2290
:101AB200C107016700016500016800026A000001B8
:051AC20069000166004F
:0C001600C2AF8F993099FDC299D2AF2281
:030023000213EADB
:1013EA00C0E0C0F0C083C082C0D075D000C000C0C9
:0D13FA0001C002C003C004C005C006C0074A
:1014070020980302158FC298AF99E56514601A14E6
:10141700602414602E14603814606424057067EF2C
:10142700645A706575650180608F6CE56C2567F59A
:101437006775650280538F66E5662567F56775658D
:101447000380468F6DE56D2567F5677565048039FF
:10145700E568C3956D5016EF2567F5677400256835
:10146700F582E43400F583EFF00568801CE567B585
:10147700070B756700756800756505800C8007BFE9
:10148700A507D207800075650020070302158FC2E4
:1014970007E56C14B40800400302158F9014B1756A
:1014A700F003A4C58325F0C583730214C90214E4AD
:1014B70002150302152302153802155D02157B027A
:1014C7001588754932E5497F0025E0FE121CCF05D6
:1014D70049E549C3946A40ED756A64801975490006
:1014E700E5497F0025E0FE121CCF0549E549C39475
:1014F7003240ED756A00756B000215847B017A0036
:101507007900754F00856D50AF6BAE6A121B62E5AF
:101517006D256BF56BE4356AF56A80617B017A00AE
:101527007900754F00856D50AF6BAE6A121B6280F4
:101537004CE56B2432FFE4356AFE7B017A007900C3
:10154700754F00856D50121B62E56D256BF56BE4D9
:10155700356AF56A8027756EF1754900AF6E056EBD
:10156700A807E6FF1200160549E549C3940740ECB2
:101577007F5680117B017A007900121C667F0680F6
:0815870004AF660566120016B0
:10158F00D007D006D005D004D003D002D001D000B0
:0B159F00D0D0D082D083D0F0D0E0325A
:0300000002187C67
:0C187C00787FE4F6D8FD75816E0218C379
:10190800BB010689828A83E0225002E722BBFE02DD
:09191800E32289828A83E4932210
:10192100BB010689828A83F0225002F722BBFE01A5
:02193100F3229F
:10193300E8600FECC313FCED13FDEE13FEEF13FF92
:03194300D8F122B6
:10194600E8600FEFC333FFEE33FEED33FDEC33FCFF
:03195600D8F122A3
:0C195900A42582F582E5F03583F5832299
:10196500D083D082F8E4937012740193700DA3A311
:1019750093F8740193F5828883E473740293686025
:06198500EFA3A3A380DF25
:10188800020DECE493A3F8E493A34003F68001F27D
:1018980008DFF48029E493A3F85407240CC8C33361
:1018A800C4540F4420C8834004F456800146F6DF30
:1018B800E4800B0102040810204080901A65E47E41
:1018C800019360BCA3FF543F30E509541FFEE49325
:1018D800A360010ECF54C025E060A840B8E493A3EC
:1018E800FAE493A3F8E493A3C8C582C8CAC583CA17
:1018F800F0A3C8C582C8CAC583CADFE9DEE780BECF
:011AC700001E
:00000001FF
